HContraloria del Estado                  010205131300001238510130/09/13000000035000003291 
001020513140000171146000000500000770RODRGUEZ BETZAIDA ELENA                 0005083237003291  
001020513180000170642000000500000770 LEYDA JOSEFINA                         0008433178003291  
001020513110000170833000000500000770GUTIRREZ CARMEN TERESA                  0008650495003291  
001020513110000170095000000500000770YRIGOYEN FLOR GILDA                     0010217923003291  
001020513120000170273000000500000770 JULIETA MARGARITA                      0011828195003291  
001020513140000170286000000500000770ZERPA MARA VIRGINIA                     0011830367003291  
001020513180000170477000000500000770 MARIANGELES JOSEFINA                   0015933047003291  